:100000000C9406000C942D050C942D05E4E9E09366
:1000100066000C94100500000C942D050C942D0521
:100020000C942D050C942D050C942D050C942D0588
:100030000C942D050C942D050C942D050C942D0578
:100040000C942D050C942D050C942D050C942D0568
:100050000C942D050C942D050C942D050C942D0558
:100060000C942D050C942D050000000000000000EC
:100070000000000000000000000000F80000000088
:10008000000000333000000000100C06100C0600C9
:10009000000000000000000040C07840C078400030
:1000A000043F04043F040400007088FC0830000092
:1000B000001820FF211E0000F008F000E0180000EA
:1000C00000211C031E211E0000F0088870000000A3
:1000D0001E2123241927211010160E0000000000F5
:1000E0000000000000000000000000E01804020012
:1000F000000000071820400000020418E000000083
:100100000040201807000000404080F08040400080
:100110000202010F01020200000000F000000000D6
:100120000101011F010101000000000000000000AA
:1001300080B070000000000000000000000000001F
:1001400000010101010101010000000000000000A8
:100150000030300000000000000000008060180443
:10016000006018060100000000E010080810E00020
:10017000000F102020100F00001010F800000000E9
:100180000020203F20200000007008080888700030
:1001900000302824222130000030088888483000B0
:1001A0000018202020110E000000C02010F80000D0
:1001B00000070424243F240000F808888808080069
:1001C0000019212020110E0000E01088881800007E
:1001D000000F112020110E0000380808C838080050
:1001E0000000003F000000000070880808887000D0
:1001F000001C222121221C0000E010080810E00051
:100200000000312222110F00000000C0C0000000D9
:1002100000000030300000000000008000000000FE
:1002200000008060000000000000804020100800F6
:1002300000010204081020004040404040404000BF
:10024000040404040404040000081020408000009A
:100250000020100804020100007048080808F0009F
:100260000000003036010000C030C828E810E0006F
:100270000718272423140B000000C038E0000000FA
:10028000203C23020227382008F888888870000064
:10029000203F202020110E00C03008080808380038
:1002A000071820202010080008F808080810E000AF
:1002B000203F202020100F0008F88888E808100050
:1002C000203F20202320180008F88888E808100024
:1002D000203F200003000000C0300808083800005C
:1002E00007182020221E020008F808000008F8085D
:1002F000203F210101213F20000808F808080000E4
:100300000020203F2020000000000808F808080016
:10031000C08080807F00000008F888C0281808008E
:10032000203F20012638200008F8080000000000C7
:10033000203F20202020300008F8F800F8F80800BE
:10034000203F003F003F200008F830C00008F808B8
:10035000203F200007183F00E01008080810E000C8
:100360000F10202020100F0008F808080808F000DF
:10037000203F210101010000E01008080810E00002
:100380000F18242438504F0008F888888888700097
:10039000203F2000030C3020007088080808380037
:1003A0000038202121221C00180808F8080818002D
:1003B0000000203F2000000008F808000008F808AE
:1003C000001F202020201F000878880000C838085F
:1003D000000007380E010000F80800F80008F800D7
:1003E000033C0700073C0300081868808068180871
:1003F00020302C03032C30200838C800C8380800EF
:100400000000203F2000000010080808C83808003D
:100410002038262120201800000000FE02020200E1
:100420000000007F40404000000C30C00000000091
:10043000000000010638C00000020202FE000000B9
:10044000004040407F00000000000402020204005F
:10045000000000000000000000000000000000009C
:100460008080808080808080000202040000000084
:10047000000000000000000000008080808000007C
:100480000019242222223F2008F80080800000006A
:10049000003F112020110E0000000080808000002D
:1004A000000E112020201100000000808088F8003C
:1004B000000E112020103F2000008080808000006E
:1004C000001F222222221300008080F088888818D2
:1004D0000020203F202000000000808080808000DD
:1004E000006B94949493600008F800808080000072
:1004F000203F210000203F2000809898000000004D
:100500000020203F2020000000000080989800007C
:1005100000C08080807F000008F80000808080009C
:10052000203F24022D302000000808F800000000C1
:100530000020203F2020000080808080808080007C
:10054000203F20003F20003F80800080808000000E
:10055000203F210000203F2000008080808000009C
:10056000001F202020201F008080008080000000CD
:1005700080FFA12020110E000000008080808000FC
:10058000000E112020A0FF808080800080808000ED
:1005900020203F212000010000008080808080001A
:1005A0000033242424241900008080E0808000008F
:1005B0000000001F202000008080000000808000DC
:1005C000001F202020103F2080808000008080803D
:1005D00000010E30080601008080008000808080CD
:1005E0000F300C030C300F000080800080808000F2
:1005F0000020312E0E31200080808000008080801D
:1006000080818E70180601000080808080808000CC
:100610000021302C22213000436F6E74726173749C
:1006200000AF57B950C24A97451141133D87395A17
:10063000367E33E8308E2E692C712AA128F5266982
:1006400025F923A222622137201E1F161E1E1D34EB
:100650001C571B851ABF1903195018A61704176ACF
:1006600016D6154915C2144114C5134E13DC126E6B
:100670001205129F113D11DF108410000014002993
:10068000003E005300690080009700AE00C600DF06
:1006900000F80012012D01490165018201A001BE8F
:1006A00001DE01FF012102440268028E02B502DE72
:1006B000020903350364039403C803FE033704737C
:1006C00004B404F90443059305EA054906B3062971
:1006D00007AE074808FF08DE09BA03870358032E50
:1006E000030703E402C302A4028802494C4C4547B5
:1006F000414C20434F50592100436F6E7461637425
:10070000207468652073656C6C657220746F00736B
:100710006F6C7665207468652070726F626C656DB1
:100720002E0053687574646F776E00546573746936
:100730006E672E2E2E005A656E65720044696F64D6
:100740006500322044696F646573005472696163A7
:1007500000546879726973746F72005265736973BB
:10076000746F7200436170616369746F7200496EE7
:10077000647563746F720043656C6C002D4D4F534C
:10078000002D4A464554004E504E00504E50004EEB
:100790006F2C20756E6B6E6F776E206F72006461C8
:1007A0006D6167656420706172742E005265706CB3
:1007B0006163652074686520626174746572792173
:1007C00000507265706172652061206361706163C1
:1007D00069746F722C0043617061636974616E6348
:1007E000652000496E7365727420746865206361CA
:1007F00070616369746F722C0053656C6674657305
:100800007400506C732049736F6C61746520507272
:100810006F626521005465737420456E642E004D2F
:1008200054657374657200004279204566616E20DC
:10083000262048616F516978696E004B61726C2D9A
:100840004865696E7A204B756262656C6572003925
:10085000316D616B652E74616F62616F2E636F6DB8
:1008600000323031332D31322D3234005662617412
:100870003D00204F4B00433D006846453D00556616
:100880003D0056743D005667733D00566363203D3E
:10089000005668693D00557A3D004553523D00566B
:1008A0006C6F73733D004C3D00566578743D005687
:1008B000322E3037005265663D00205248663D00BA
:1008C00052482D0052482B002B524C2D2031322003
:1008D0003133203233002B52482D20313220313336
:1008E0002032330052482F524C0052303D005269A2
:1008F0005F48693D0052695F4C6F3D0043303D00E9
:10090000203530487A003E3130306E460052454640
:100910005F433D005245465F523D00010410010215
:1009200004706E7F6D006B4D848E8480FFFF00002D
:10093000F8F8000000007F7F00000F0FFCF8F0E0E7
:10094000C080FC1F0F070301001FFC80C0E0F0F80F
:10095000FC1F000103070F1FFEFE0000FEFE0F0F2D
:1009600000000F0FFEFE40201008040201FFFF04EC
:100970000810A0C0E000FEFE40201008040201FFA5
:10098000FF04381828408000FCFC00E782C2E282A5
:10099000831F1F007320212320FFFCFC00E782E25D
:1009A000C282831F1F007320232120FFC08000FE0E
:1009B000FE080808080F070301FFFF20202020E0A1
:1009C00080C00000FEFE080808080F03070101FFB1
:1009D000FF20202020E08898B8F8B8988FC8E8F861
:1009E000E8C888100804020100FF000000000000B1
:1009F00008183878FF7838180811090503FF010135
:100A0000010180000000000000FC00000000000068
:100A100000000182C2E2F2FAFFFAF2E2C2820408A6
:100A200011241FBECFEFD8E0DEBFCDBF12E0A0E0A3
:100A3000B1E0ECE9F9E602C005900D92A230B107F1
:100A4000D9F712E0A2E0B2E001C01D92A439B107CB
:100A5000E1F70E9438180C94CC340C940000662303
:100A600011F05B9A01C05B9890E05A9887FF02C032
:100A7000599A01C059985A9A9F5F983011F0880F7F
:100A8000F4CF089561E00E942F0508951F93162F5B
:100A9000805560E00E942F05812F8F7060E00E94DA
:100AA0002F0512951F70812F806160E00E942F0535
:100AB0001F9108956F927F928F929F92AF92BF92F3
:100AC000CF92DF92EF92FF920F931F93DF93CF931A
:100AD000CDB7DEB728970FB6F894DEBF0FBECDBFF7
:100AE000982E162F809106028F5F609105020E945A
:100AF00046051052E12EFF2424E0EE0CFF1C2A953F
:100B0000E1F7870100591F4F5E010894A11CB11C39
:100B100065019FE7892E89E0682E712C6C0E7D1E81
:100B2000F8019491892F8170F6018083892F869531
:100B3000911088250E9442050F5F1F4F0894C11C29
:100B4000D11CC614D70461F7992011F08FE701C0BA
:100B500080E00E94420580910602609105020E9499
:100B60004605870108591F4FF80194919695F501A4
:100B700080818111906891109095892F0E94420583
:100B80000F5F1F4F0894A11CB11CAC14BD0461F78A
:100B9000992011F08FEF01C080E00E944205809102
:100BA0000502875F8093050228960FB6F894DEBF92
:100BB0000FBECDBFCF91DF911F910F91FF90EF90AE
:100BC000DF90CF90BF90AF909F908F907F906F906D
:100BD00008951F93CF93DF93182FEB01FE016491CB
:100BE000662339F0603829F0812F0E945A0521963A
:100BF000F5CFDF91CF911F9108951F9360E00E9480
:100C0000460510E080E00E9442051F5F1138D1F7D1
:100C10001F9108958AEA60E00E942F0508951F93AE
:100C200010E0812F0E94FD051F5F1830D1F71F9142
:100C300008951F9312E0812F0E94FD051F5F183059
:100C4000D1F71F910895FF920F931F93F42E022F57
:100C50000E94460510E004C0802F0E9442051F5FDD
:100C60001F15D0F31F910F91FF9008950F931F93BD
:100C7000182F062F0E94460588EF0E944205812FFB
:100C80008F5F602F0E9446058FEF0E9442051F91E3
:100C90000F9108951F93142F0E944605112359F4B4
:100CA0008FE70E94420581E40E9442051F5F1531D3
:100CB000D1F78FE714C010E08CE00E94420582E07B
:100CC0000E94420581E00E94420581E00E944205A7
:100CD00082E00E9442051F5F143071F78CE00E9491
:100CE00042051F910895FF920F931F93182FF62E20
:100CF000082F0C5D83E0602F42E121E00E94230673
:100D000087E0602F42E121E00E942306135F85E027
:100D1000612F44E12F2D0E94230683E0602F0E9463
:100D200046058FEF0E94420586E0602F0E9446052F
:100D30008FEF0E9442051F910F91FF900895CF926F
:100D4000DF92EF92FF920F931F93CF93DF93D82EF2
:100D5000C62E7A01022F0E944605E70110E006C068
:100D6000FE0184910E9442051F5F21961017C0F377
:100D70008D2D8F5F6C2D0E944605E701C00FD11DA0
:100D800010E006C0FE0184910E9442051F5F21967B
:100D90001017C0F3DF91CF911F910F91FF90EF904B
:100DA000DF90CF900895CF92DF92EF92FF920F9352
:100DB0001F93CF93DF93182F83E063E20E944605D1
:100DC000C2E3D2E0CE010E948B340E9442052196FC
:100DD00082E0C933D807B1F786E063E20E94460596
:100DE000CE010E948B340E944205219682E0C034DD
:100DF000D807B1F784E067E20E944605012F10E0B2
:100E0000C00FD11F680135E4E32E32E0F32EE00E6F
:100E1000F11ECE010E948B340E9442052196CE1510
:100E2000DF05B9F785E067E20E944605E801CB5B84
:100E3000DD4F8601065B1D4FCE010E948B340E9460
:100E400042052196C017D107B9F7DF91CF911F91C5
:100E50000F91FF90EF90DF90CF900895DF92EF9287
:100E6000FF920F931F93CF93DF93182F062FD42E4B
:100E7000862F642F0E94460586E1189F7001112479
:100E8000E701C051DE4F10E0CE010E948B340E947A
:100E900042051F5F21961B30B9F7802F8F5F6D2DA4
:100EA0000E944605870105501E4FE7016696C05116
:100EB000DE4FC8010E948B340E9442050F5F1F4F16
:100EC0000C171D07B1F7DF91CF911F910F91FF9084
:100ED000EF90DF900895CF92DF92EF92FF920F9301
:100EE0001F93CF93DF93D82E605285E0689FE00177
:100EF0001124C050D04000E06FE7C62ECE010E9402
:100F00008B3490E020E030E0220F331F220F331F9C
:100F100087FD23609F5F983011F0880FF5CF79012E
:100F2000EE0CFF1C60910502600F809106020E948A
:100F300046051E2DD1101095812F0E944205812F4C
:100F40000E9442058091060260910502600F8F5F4A
:100F50000E9446051F2DD1101C25812F0E9442059D
:100F6000812F0E94420521960E5F0A3039F660916A
:100F70000502665F809106020E944605DD2011F0A1
:100F80001FEF01C010E0812F0E944205812F0E94B7
:100F900042058091060260910502665F8F5F0E94A4
:100FA0004605D1101FE7812F0E944205812F0E9424
:100FB000420580910502845F80930502DF91CF9105
:100FC0001F910F91FF90EF90DF90CF9008951F93A6
:100FD000CF93DF93182FEB01FE016491662339F064
:100FE000603829F0812F0E946B072196F5CFDF91A1
:100FF000CF911F910895CF92DF92EF92FF920F93BE
:101000001F93CF93DF93E82E162F809106026091F5
:1010100005020E944605105285E0189F60011124C8
:10102000860100501040E801FF24CE010E948B345D
:101030008295880F807EE11080950E944205F3948E
:10104000219685E0F81689F7EE2011F08FEF01C0A8
:1010500080E00E944205809106028F5F6091050248
:101060000E9446057FE7F72EE601CB5FDF4FC80100
:101070000E948B34869586958695E1108F250E9477
:1010800042050F5F1F4F0C171D0789F7EE2011F067
:101090008FE701C080E00E944205809105028A5FCF
:1010A00080930502DF91CF911F910F91FF90EF90F8
:1010B000DF90CF9008951F93CF93DF93182FEB010C
:1010C000FE016491662339F0603829F0812F0E9477
:1010D000FB072196F5CFDF91CF911F9108951F93C4
:1010E000CF93DF93182F80910602609105020E9432
:1010F0004605105285E0189FE0011124C050D040F1
:1011000010E0CE010E948B340E9442051F5F2196A1
:101110001530B9F780E00E944205809105028A5F90
:1011200080930502DF91CF911F910895CF93DF93B4
:10113000EC0103C00E946F08219688818823D1F7B3
:10114000DF91CF910895CF93DF93EC01FE0184915D
:10115000882331F0803821F00E946F082196F6CF65
:10116000DF91CF910895EF92FF920F931F9380E04C
:1011700060E00E94460510E08FEF0E9442051F5F6D
:101180001038D1F781E060E00E94460510E08FE75B
:101190000E9442051F5F1038D1F78CE18093050251
:1011A0001092060281E068E176E00E94E9054F9B1B
:1011B000FECF8CEE91E00E948B34082F8CE380935D
:1011C000050284E080930602602F6D5D80E00E943E
:1011D0005A0510E0FCE3EF2EE4E0FE2E4F991DC00F
:1011E0000F5F073108F00DE0E0920502F092060271
:1011F000602F6D5D80E00E945A0581E860E00E94EA
:101200002F05802F60E00E942F058CEE91E0602F6B
:101210000E9499344F9BFECF10E00E94EA231F5F8B
:101220001333E0F20E940F061F910F91FF90EF9091
:101230000895CF93DF938AB18E618AB95C980E943A
:10124000F5235C9A0E94F523C5EED1E0CE010E9401
:101250008B3460E00E942F05219681E0C03FD807C3
:10126000A9F7DF91CF910895E8E2F8E090E084914A
:10127000980F319688E0EA33F807C9F7892F089567
:1012800080E008951F9380E060E00E94460510E032
:101290008FEF0E9442051F5F1038D1F781E060E0B8
:1012A0000E94460510E08FE70E9442051F5F10383C
:1012B000D1F785E1809305021092060281E06FE18B
:1012C00078E00E94E90582E680930502109206020A
:1012D00081E06FEA78E00E945B0883E18093050279
:1012E00083E08093060280E06BE277E00E94E905EC
:1012F00080910302882369F08AE08093050287E0E9
:101300008093060288E298E00E94A30810920302EC
:101310000DC08DE08093050287E0809306028FE484
:1013200098E00E94A30881E0809303021F91089532
:1013300084E08093050281E0809306028CEA97E0C6
:101340000E94A3080895FF920F931F93CF93DF93FA
:10135000082F84E069E00E9446058BE0089FC001E9
:1013600011246AE070E00E94EE33EB0110E00CC043
:10137000812F6BE00E94CE33992311F481E001C0EC
:101380008DEF0E9442051F5F812F90E08C179D0713
:101390007CF385E069E00E94460510E00CC0812FD7
:1013A0006BE00E94CE33992311F480E101C087E104
:1013B0000E9442051F5F812F90E08C179D077CF3F0
:1013C000802F6AE00E94CE33292F82E080930602AC
:1013D0000A3038F48AE380930502205D80E0622FB2
:1013E00025C0802F64E60E94CE33892F6AE00E94D8
:1013F000CE3390E3F92EF20E182F105D043620F450
:1014000087E3809305020CC084E380930502802F5C
:1014100064E60E94CE33682F605D80E00E94FB0787
:1014200080E0612F0E94FB0780E06F2D0E94FB0788
:1014300080E065E20E94FB07DF91CF911F910F9141
:10144000FF90089580E062E277E00E945B0880E010
:101450006EE20E94FB070E94E52380E06EE20E949C
:10146000FB070E94E52380E06EE20E94FB070E94DA
:10147000E5231BB880E48AB908950F931F93CF9397
:10148000DF9310E0812F90E08E599D4F0E948B34A6
:10149000811711F001E004C01F5F1F3198F300E0D5
:1014A000809166001091660012951F708F70180F62
:1014B000812F90E08E599D4F0E948B34982F0023EE
:1014C00039F080916600192790E0811779F40DC0FA
:1014D000C2E6D2E010E0609166006127CE010E9472
:1014E00099341F5F21961F31B1F791E0892FDF9169
:1014F000CF911F910F9108951F93CF93DF93162FD4
:10150000E82FF0E0E55EF64F949195B9E62FF0E014
:10151000E55EF64FE491E92BE4B90E94CE29EC0197
:10152000812F0E94CE2920914502309146023695A6
:101530002795B901645170406C177D0778F4A901B3
:101540004C5E5F4FC417D50748F46817790730F42D
:1015500020E08417950718F421E001C020E014B8BA
:10156000822FDF91CF911F9108950F931F9380E0F9
:1015700061E00E947C0A082F80E062E00E947C0A01
:10158000182F81E062E00E947C0A100F810F1F91EA
:101590000F91089518B817B814B815B885E184B933
:1015A00080917C028823A1F481E080937D0217B8AA
:1015B000399A0E94E52380E00E94C8299093830213
:1015C0008093820217B83A9A0E94E52380E014C003
:1015D000813019F510927D0217B8389A0E94E523E0
:1015E00081E00E94C829909383028093820217B8F9
:1015F0003A9A0E94E52381E00E94C82990938702CD
:101600008093860220918202309183022817390745
:1016100030F582E080937D02089510927D0217B824
:10162000389A0E94E52382E00E94C82990938302A1
:101630008093820217B8399A0E94E52382E00E94C3
:10164000C82990938702809386022091820230916C
:1016500083022817390718F481E080937D020895EA
:101660002F923F924F925F926F927F928F929F92B2
:10167000AF92BF92CF92DF92EF92FF920F931F93A0
:10168000DF93CF93CDB7DEB72E970FB6F894DEBFBA
:101690000FBECDBF18B817B80E94B50A833009F045
:1016A00011C30E940F0680E060E00E94460510E032
:1016B0008FEF0E9442051F5F1038D1F781E060E094
:1016C0000E94460510E08FE70E9442051F5F103818
:1016D000D1F78CE1809305021092060281E069EF58
:1016E00077E00E94E90514E01093050210930602CA
:1016F00081EC97E00E94A3081093050285E0809397
:10170000060280E066ED77E00E945B0880E066E01C
:1017100079E00E945B0880E06EE20E94FB070E9475
:10172000E2230E94190684E068E00E9446058FEFDC
:101730000E94420510E081E00E9442051F5F1F36B3
:10174000D1F78FEF0E94420585E068E00E944605D0
:101750008FE10E94420510E080E10E9442051F5F78
:101760001F36D1F78FE10E94420581E00E94A30954
:1017700080E692E060E00E94993481E692E060E0C9
:101780000E9499348FE592E060E00E94993482E0F3
:1017900060E00E94062A9A83898382E061E00E94C9
:1017A000062A9C838B8381E060E00E94062A8C01DC
:1017B0009E838D8369817A816C33710524F480E680
:1017C00092E00E9499346B817C816C33710524F422
:1017D00081E692E00E9499340C3311052CF48FE5D8
:1017E00092E0602F0E94993482E00E94A30912E0E7
:1017F0000E94E6234F9B06C01F5F812F0E94A30912
:101800001E30B1F78EE00E94A3094EE0C42EDD2405
:10181000D39432E0932E28E0A22E90E2892E82E229
:10182000282E0CE0402E16E0312E17C121E0D216F2
:1018300029F40E94B32B50924102E4C082E0D816F2
:1018400061F5609145027091460280E090E028E5E4
:101850003BE140E050E00E94AF3324EC36E340E04F
:1018600050E00E94233479018A0181E085B995E036
:1018700094B980E00E94C8298E199F099A838983B0
:10188000E1E1E4B980E00E94C8298E199F099C8398
:101890008B8375B864B881E0AFC0F3E0DF1659F50B
:1018A00095B82AE024B980E00E94C8292091450219
:1018B000309146023695279538872F83821B930BEC
:1018C0009A83898324B880E00E94C8299C018F8173
:1018D0009885281B390B3C832B83A5B888E284B9F3
:1018E00081E00E94C8299C018F819885281B390BB3
:1018F0003E832D8387C094E0D91689F44092050277
:101900003092060280E062E078E00E945B080E946C
:10191000B50A882309F476C0A2E0BA2E73C0E5E0C8
:10192000DE1691F415B894B880E00E94C8299A8315
:101930008983A4B881E00E94C8299C838B8384B8E2
:1019400082E00E94C8295CC0F6E0DF1631F594B849
:1019500095B880E00E94C829209145023091460246
:10196000821B930B9A838983A4B8A5B881E00E9457
:10197000C8292091450230914602821B930B9C831B
:101980008B8384B885B882E00E94C82920914502E3
:1019900030914602821B930B33C027E0D21691F59B
:1019A000609145027091460280E090E028E53BE1BD
:1019B00040E050E00E94AF3328EB32ED47E450E0C6
:1019C0000E94233479018A0195B883E084B980E0CC
:1019D0000E94C8298E199F099A838983A5B89CE023
:1019E00094B981E00E94C8298E199F099C838B833A
:1019F00085B8E0E3E4B982E00E94C8298E199F0906
:101A00009E838D8317B818B814B815B84F9B21C0A2
:101A10000E94E623F4E0DF1621F0C3948C2D0E948F
:101A2000A3094F9B16C00E94E82386E00E94FD0593
:101A300087E00E94FD050E94E92324E0D21621F0F0
:101A4000C3948C2D0E94A309B39483E08B1508F0F6
:101A5000EDCED39498E0D91641F0BB24F4E07F2E6C
:101A6000E4E16E2E7EEB572EE1CE8EE30E94A309B9
:101A70000E94E62318861F8210920C0282E060E02A
:101A80000E94812480916E0290916F029C878B87C7
:101A900082E061E00E94812480916E0290916F0249
:101AA0009E878D8781E060E00E94812480916E0294
:101AB00090916F029E838D8380E062E00E9481247A
:101AC00080916E0290916F029C838B8381E062E033
:101AD0000E94812480916E0290916F029A8789877B
:101AE00080E061E00E94812480916E0290916F02FB
:101AF0009A8389836E010894C11CD11C76019E01D2
:101B0000215F3F4FF701808191818734910514F067
:101B10000EE319C082E090E0E80EF91EE216F3062B
:101B200089F707E512E0F60160816E5EC8010E9448
:101B3000993482E090E0C80ED91E0F5F1F4FCE147B
:101B4000DF0489F7E5CF0E94EA230F5F802F0E9410
:101B5000A3090235C1F7EE24FF246FE1B62E56E645
:101B6000C52E52E0D52E86E00E94FD0587E00E943A
:101B7000FD050E94EA231092050286E0809306028A
:101B800083EE97E00E94A308B092050287E080935D
:101B9000060281E30E946F088DE20E946F0883E3D2
:101BA0000E946F0880E20E946F0886E099E00E9420
:101BB000A3088EE20E946F0810920C0282E060E09F
:101BC0000E94812460916602709167028091680290
:101BD00090916902109178020BC02AE030E040E059
:101BE00050E00E940134C901DA01BC01CD011F5F40
:101BF000173F9CF360936602F6017183828393839F
:101C000010937802173F39F560367105810591050B
:101C100010F1605F754580409040E8F4F39421E056
:101C20002F15D0F486E00E94FD0587E00E94FD0597
:101C300060917A0270917B0285E592E00E94A73460
:101C40000E94E9230E94EC230F5F802F0E94A309CA
:101C50000236B1F708C0FF240E94E923E39480E430
:101C6000E81609F080CF82E60E94A3090E94E623CD
:101C700083E60E94A3090E94E6238CE2809341023E
:101C800086E00E94FD0587E00E94FD0580E18093CB
:101C9000050286E08093060280E065E178E00E941C
:101CA0005B0886E58093050280E06FEA78E00E9499
:101CB0005B0884E60E94A30910920C020E94E223B2
:101CC0000E94E2232E960FB6F894DEBF0FBECDBF62
:101CD000CF91DF911F910F91FF90EF90DF90CF9008
:101CE000BF90AF909F908F907F906F905F904F903C
:101CF0003F902F9008956F927F928F929F92AF9214
:101D0000BF92CF92DF92EF92FF920F931F93DF93D8
:101D1000CF93CDB7DEB7A5970FB6F894DEBF0FBE51
:101D2000CDBF782F662E49015A01D02E7E2C3C2D36
:101D3000E82FF92FCF01AE01405F5F4FC82EC71AC1
:101D4000FC012491222341F0203831F0FA01EC0DFE
:101D5000F11D20830196F2CF333019F488EE93E021
:101D60001EC0343019F480E197E219C084E690E097
:101D700016C085E090E0A0E0B0E0880E991EAA1E93
:101D8000BB1EC501B4012AE030E040E050E00E94F3
:101D90000134C901DA014C015D01D39403C07C0117
:101DA00000E010E08E149F04A006B10610F70D2D80
:101DB000045F033108F002E1802F63E00E94CE331C
:101DC000E82F802F0E94CE33F92E992321F0EF5F68
:101DD00083E0891BF82EF0E0EF5DF64FE490C4013C
:101DE0008E010F5F1F4FB8014AE050E00E9475342A
:101DF000F80101900020E9F73197DE2ED01A4D2D21
:101E00004F191416B4F0DE015096FD01EC0DF11DD2
:101E100020E320839C2D9F5FFD01E90FF11D8EE2E1
:101E20008083C92EC394442321F0AC0DB11D2C93A3
:101E3000C394FF2009F44FEF8E010F5F1F4FD801AD
:101E400021E030E0BE01605F7F4F552747FD509590
:101E50009EE211C0FB01EC0DF11D8C918083C394B7
:101E60002417350729F4FB01EC0DF11D9083C39471
:101E700011962F5F3F4F8A2F801B8D1558F3EE2050
:101E800029F0FE01EC0DF11DE08AC394772029F0C2
:101E9000FE01EC0DF11D708AC394809165028130C2
:101EA00081F486E0C89E90011124C901019762E087
:101EB00070E00E94EE3380910502861780F0861B49
:101EC0000BC08230D1F486E0C89E202D1124809171
:101ED0000502821720F0821B8093050202C0109237
:101EE00005028091050290E0820F911D81389105D5
:101EF00024F080E8821B8093050250E1A52EB12CCE
:101F0000AC0EBD1E662011F4850112C0850106C00D
:101F100080E0D8016D918D010E94FB07802F8A1906
:101F20008C15B0F309C0F80181918F010E946F08F0
:101F3000802F8A198C15B8F3A5960FB6F894DEBFDA
:101F40000FBECDBFCF91DF911F910F91FF90EF900A
:101F5000DF90CF90BF90AF909F908F907F906F90C9
:101F60000895CF92EF920F9390E0FC01EE0FFF1FC8
:101F7000E80FF91FEE0FFF1FEE0FFF1FE35EFD4F8F
:101F8000208131814281538124363105410551053B
:101F9000E0F48091210290912202A0912302B0915D
:101FA00024020097A105B10581F4818562850E9414
:101FB000062A9C0140E050E087E298E060E00EEFE6
:101FC000AEE7EA2EF3E0CF2E08C087E298E060E0AB
:101FD0000FEFEEE7EE2E74E0C72E0E947B0E0F91FE
:101FE000EF90CF900895CF92EF920F938330B0F49B
:101FF000E82FF0E0EE0FFF1FEE0FFF1FE258FD4F3E
:102000002081318140E050E08EE798E060E00DEF04
:10201000E6E5EE2E73E0C72E0E947B0E0F91EF9047
:10202000CF9008951F93182F82958F700E94F30F01
:10203000812F8F700E94F30F1F910895CF93DF932C
:1020400085E592E00E9493342091490230914A0242
:10205000280F391F43E0283E340718F4E0E0F0E091
:1020600003C0F901E85EF340CF0162E370E00E9433
:10207000DA33262FCF0162E370E00E94DA33482F73
:10208000283008F027E0822F90E0880F991FFC018C
:10209000E752F94F259134918552994FFC01C59132
:1020A000D49182E3841B90E02C1B3D0BAC01429F3A
:1020B000C001439F900D529F900D1124499662E3F9
:1020C00070E00E94DA33C60FD71FD0930101C0938E
:1020D0000001DF91CF910895AF92BF92CF92DF922E
:1020E000EF92FF920F931F93CF93DF93DD245AE279
:1020F000A52E45E1B42E38E0C32E17B818B815B890
:1021000014B8A4B880E00E94CC29EC0181E00E94C0
:10211000CE298C0182E00E94CE29BC0180910C0264
:102120008830C1F080E0C430D10508F481E020E0BF
:102130000430110508F421E08223282F30E040E02C
:1021400050E06430710510F441E050E02423352361
:10215000232B19F017B814B86CC080E0C85ED340C8
:1021600008F481E0085E134008F48260685E734002
:1021700008F4846087B9B4B8EE24FF24A89580E001
:102180000E94C8298C0181E00E94CE29EC0182E0E6
:102190000E94CE299C0185E00431180708F4389A82
:1021A00095E0C431D90708F4399A85E0243138071D
:1021B00008F43A9A0630110530F4C630D10518F407
:1021C0002630310540F10894E11CF11C94EFE9162A
:1021D00091E0F90699F6C0920C0210937F020093E9
:1021E0007E0210927C020C171D0738F4D0937F02F8
:1021F000C0937E0281E080937C0280917E02909168
:102200007F028217930738F430937F0220937E0277
:1022100082E080937C02C0E0D0E003C00E94F523FE
:102220002196CE15DF05D0F3D3948AE0D81609F0B5
:1022300064CFDF91CF911F910F91FF90EF90DF90CE
:10224000CF90BF90AF9008951F93182F60FF03C0E9
:1022500085B1812B03C095B18095892385B984B15F
:10226000812B84B90E94F02384B1912F909589230A
:1022700084B985B1982395B91F9108952F923F9203
:102280004F925F926F927F928F929F92AF92BF9286
:10229000CF92DF92EF92FF920F931F93DF93CF9332
:1022A000CDB7DEB766970FB6F894DEBF0FBECDBFD1
:1022B0008A8B6B8B4C8BA895262F30E0F901E55E5D
:1022C000F64F54915B878C89E82FF0E0E55EF64F7E
:1022D00094919A87990F9D87AA896A2F70E0CB0104
:1022E000855E964FFC01F491F987FF0FFC87625ED3
:1022F000764FFB01F491F887225E364FF901F49195
:10230000FF8315B854B9288527B928B98A8560E0B4
:102310000E9424118B890E94CC299E838D83815D2C
:10232000934048F08A8561E00E9424118B890E94C5
:10233000CE299E838D834D815E814D35510508F4F4
:10234000B1C08D855B85852B84B98B890E94C82996
:102350007C018C890E94CE298C018D8585B98B8961
:102360000E94C829970128513E4F2817390708F0C5
:1023700042C018B89F8197B98D85A9858A2B84B9E9
:1023800085B98C890E94C82988549F4028F083E031
:1023900080930C0284E004C083E080930C0286E00A
:1023A00080930B02F0925C02E0925B02C701801BFB
:1023B000910B9093640280936302B70180E090E0F8
:1023C00028EE33E040E050E00E94AF332091070256
:1023D0003091080240E050E00E94013430935E02E8
:1023E00020935D02EC89E0935F02FA89F09360022A
:1023F0002B892093610218B83F8137B98D854985B3
:10240000842B84B985B98A890E94C8298C018C895A
:102410000E94CE297C01598555B98A890E94C82914
:1024200088519E4F80179107E8F5888588B987B94C
:102430008C890E94C829815D934028F483E08093B1
:102440000C0285E004C083E080930C0287E0809357
:102450000B02E01AF10AF0926402E09263026091CA
:10246000450270914602601B710B80E090E028EEFF
:1024700033E040E050E00E94AF3320910D023091F4
:102480000E0240E050E00E94013430935E0220933F
:102490005D02BC89B0935F02EB89E0936002FA8928
:1024A000F093610218B82F8127B9398535B94A856B
:1024B000342B398B34B900914502109146028A8938
:1024C0000E94CC297C018C890E94CE292C018A3063
:1024D000910570F58D859985892B84B920904502E9
:1024E000309046028A890E94CC29281A390A8C89A0
:1024F0000E94CE292C01710100E010E020910D0214
:1025000030910E0240E050E060E677EB87E490E027
:102510000E940134C801B7010E94AF33920140E02C
:1025200050E00E940134C901DA014C015D010CC088
:1025300018012E183F08C10184199509B2010E94A3
:10254000DA334B01AA24BB24AB85A4B915B8B885EE
:10255000B7B9B8B90E94F123ED81FE81E15DF34086
:1025600008F0A0C23A854B85342B388B34B98B895F
:102570000E94CC298F559D4008F4E3C08D859B8532
:10258000892B8C8384B98B890E94CC299F878E8765
:102590008C890E94CE293C0180910C0282508230AD
:1025A00018F481E08093090280910902082F10E05D
:1025B0008A890E94CE29000F111F055A1D4F8619C6
:1025C0009709D8018D939C93B5E36B16710418F4A9
:1025D000B5E36B2E712C80910902E82FF0E0FE8BA1
:1025E000ED8B6F01CC0CDD1CCC0CDD1C23E532E047
:1025F000C20ED31E4E855F857A0100E010E0209167
:1026000007023091080240E050E060E677EB87E493
:1026100090E00E940134C801B7010E94AF339301DA
:1026200040E050E00E940134D6012D933D934D933C
:102630005C931397281539054A055B05B0F4F6013C
:1026400080829182A282B3822D893E89220F331F1C
:10265000255A3D4F80914502909146028219930977
:1026600084199509D9018D939C9380910C02853032
:1026700009F467C0B2ED6B16B3E07B0630F082E080
:1026800080930C0280930B0253C0ED81FE81E136F2
:10269000F10508F04DC02E853F85215D374008F4D7
:1026A00047C083E080930C0280930B020F81077078
:1026B0008C89806480937C0081E090E09093640238
:1026C0008093630210E0A8958A8561E00E9424113E
:1026D0005C8154B986B18023E9F38B8584B98091FC
:1026E0007A00806480937A0080917A0086FDFCCF26
:1026F000809178009091790020916302309164027A
:1027000021503C4F281B390B309364022093630205
:102710001F5F1B30C1F6C901880F991F880F991FD1
:1027200069E070E00E94DA337093640260936302A0
:102730009C8990935F02AB89A0936002BA89B093A1
:102740006102E889E4B9FA85F5B98B890E94CC2940
:102750009B838A8380904502909046028C890E94D8
:10276000CE29881A990A2AE08216910498F58D8557
:102770003B85832B84B94D8545B98B890E94CC2933
:102780009B838A8380904502909046028C890E94A8
:10279000CE29881A990A8A819B817C0100E010E089
:1027A000209107023091080240E050E060E677EBAC
:1027B00087E490E00E940134C801B7010E94AF3362
:1027C000940140E050E00E940134C901DA012C017B
:1027D0003D010AC08A819B8188199909B4010E9430
:1027E000DA332B01662477249F8197B918B8A98919
:1027F000A4B9A5B98A890E94CC298054964008F0D2
:102800004EC180910902813009F4BCC18A8560E023
:102810000E9424118A890E94CC298C0115B80E943B
:10282000F123E985E5B98A890E94CC290054164034
:1028300008F042C08153914108F43EC085E0809386
:102840000C0214B815B83F8138B90E94F1234985AC
:1028500044B98A890E94CC29853F910508F016C1A8
:10286000598954B98C890E94CC29815D934008F420
:102870000DC18A890E94CE298D5D924008F406C15F
:10288000E985E4B98A890E94CC298D5D924008F4DB
:10289000FDC0298525B90E94F12315B88A890E94B7
:1028A000CC29853F910508F0F1C084E080930C02AB
:1028B00081E080930902EAC03D854985342B398344
:1028C00034B935B90E94EC2320904502309046027D
:1028D0008A890E94CE29281A390AC0904502D090D0
:1028E00046028C890E94CE29C81AD90A80910C020E
:1028F0008250823018F481E08093090280910902AD
:10290000E82EFF2400914502109146020C191D0982
:102910008B890E94CE29EE0CFF1CABE5B2E0EA0EDB
:10292000FB1E081B190BF70111830083F5E3CF167B
:10293000D10418F465E3C62ED12C80910902282F0A
:1029400030E03E8B2D8B5901AA0CBB1CAA0CBB1C82
:1029500043E552E0A40EB51E710100E010E02091A5
:102960000D0230910E0240E050E060E677EB87E424
:1029700090E00E940134C801B7010E94AF33960174
:1029800040E050E00E940134D5012D933D934D93DA
:102990005C9313972415350546055705C0F4F501DA
:1029A00040825182628273822D893E89220F331FB9
:1029B000255A3D4F80914502909146024A815B81A4
:1029C000841B950B88199909D9018D939C93BEEFAF
:1029D000CB16B9E0DB0638F082E080930C0281E090
:1029E00080930B0253C0ED81FE81E136F10508F0C2
:1029F0004DC0F9E42F16FDE03F0608F447C083E020
:102A000080930C0282E080930B02088507708C890A
:102A1000806480937C0081E090E0909364028093D6
:102A2000630210E0A8958A8560E00E942411298144
:102A300024B925B986B18023E9F7398534B9809165
:102A40007A00806480937A0080917A0086FDFCCFC2
:102A50008091630290916402209178003091790016
:102A6000280F391F30936402209363021F5F1B30CD
:102A7000C9F6C901880F991F880F991F69E070E096
:102A80000E94DA3370936402609363024C8940932E
:102A90005F025A89509360028B898093610217B854
:102AA00018B870C018B89F8197B9A985A4B9A5B9FD
:102AB0008A8561E00E9424118A890E94CC297C01C8
:102AC0008B890E94CE29E81AF90ABC85B4B9B5B938
:102AD0008A890E94CC298C01E985E4B9E5B98A8507
:102AE00060E00E9424118A890E94CC296C018B89A4
:102AF0000E94CC29C81AD90AFC85F4B9F5B98A898B
:102B00000E94CC29CE14DF0410F4670101C08C01AF
:102B1000C6018759904089589141A0F5C80123E02A
:102B2000969587952A95E1F7800F911F8C159D0545
:102B300048F583E0000F111F8A95E1F7C016D10612
:102B400008F580910C02882311F0863019F481E099
:102B500080930C0280910A02E82FF0E0EE0FFF1F35
:102B6000EE0FFF1F9F0124583D4F4A89D9014C9316
:102B70005B8911965C93E258FD4FD182C0828F5FD2
:102B800080930A0280910A02882309F09DC1A895CA
:102B90008091450290914602880F991F880F991FD6
:102BA00090934602809345028091430290914402A3
:102BB000880F991F880F991F9093440280934302B6
:102BC0008EEB8093410218B88F8187B9998594B9AB
:102BD00095B911E0AA24BB248B890E94CC29E82E48
:102BE000792E8A890E94CE296C018A199B0997FF48
:102BF00003C0909581959F4F03975CF415B8AC8501
:102C0000A4B98A890E94CC298135910508F041C177
:102C100006C0A8951F5F56011931F1F63AC1BC856F
:102C2000B5B98A890E94CC294C01E885E7B9E8B991
:102C300015B8FB85F4B9FF24F394442455248A89FC
:102C40000E94CC295C018B890E94CE298C018419B9
:102C5000950997FF03C0909581959F4F03976CF45A
:102C60002B85220F24B98B890E94CC292C0130ECB2
:102C7000C31634E4D30640F00EC0A895F39428019F
:102C800049E1F416E1F605C155E8851651E09506CF
:102C900008F0FFC006C080EB88168DE4980608F0A7
:102CA000F8C092E0043A190708F047C0A8E94A16AC
:102CB000510408F4EEC0A0904502B0904602B50160
:102CC0006419750980E090E028E937EB40E050E0B6
:102CD0000E94AF33920140E050E00E94013479013C
:102CE0008A01B40180E090E028E937EB40E050E051
:102CF0000E94AF33A818B908CC24DD24A6019501A1
:102D00000E940134E20EF31E041F151F169507954D
:102D1000F794E794C801B70124E630E040E050E0C2
:102D20000E94AF335B016C012CEA3DE040E050E0D3
:102D3000A20EB31EC41ED51E49C08E2D972D9C0118
:102D40007901C216D30608F47601B8010A151B05ED
:102D500008F4B5014701EC14FD0408F446016B01C9
:102D60000617170708F468016C197D0980E090E0E8
:102D7000209107023091080240E050E00E94AF33FA
:102D8000960140E050E00E94013459016A01B4010B
:102D90006E197F0980E090E020910D0230910E02C3
:102DA00040E050E00E94AF3320914502309146024E
:102DB0002819390940E050E00E940134A20EB31EE8
:102DC000C41ED51ED694C794B794A79480910C02C4
:102DD000823030F420916202EDE1F2E090E03EC0FA
:102DE000863009F056C0F6CFAF0183853C963C890A
:102DF000831799F5DA01ED90FD900D911C91C601B4
:102E0000B5016E197F09800B910B97FF07C0909554
:102E10008095709561957F4F8F4F9F4F2AE030E0EE
:102E200040E050E00E94AF3324E630E040E050E064
:102E3000E20EF31E041F151FEA0CFB1C0C1D1D1DCA
:102E4000A80197010E940134211531054105510562
:102E500001F586E080930C021CC09F5F921720F260
:102E6000ECE02E9FF0011124E35EFD4FA082B182C1
:102E7000C282D38214821582168217823B893187DF
:102E80004A8942875C895387809162028F5F809371
:102E9000620280914502909146029695879596959B
:102EA00087959093460280934502809143029091CA
:102EB00044029695879596958795909344028093C2
:102EC00043028CE28093410217B818B814B815B8C1
:102ED00066960FB6F894DEBF0FBECDBFCF91DF91DF
:102EE0001F910F91FF90EF90DF90CF90BF90AF9028
:102EF0009F908F907F906F905F904F903F902F901A
:102F00000895CF92DF92EF92FF920F931F93CF938A
:102F1000DF938091740290917502892B09F09FC014
:102F200080917602E82FF0E0E25EF64F1491E09196
:102F30007702F0E0E55EF64F04910E946C1018B83D
:102F400015B817B904B9809177020E94CE296C0197
:102F500080917902883F0CF082C020916A02309102
:102F60006B0240916C0250916D02182F145F11C0DA
:102F70002B5F3F4F4F4F5F4FCA01B9012AE030E04E
:102F800040E050E00E940134C901DA019C01AD012A
:102F90001F5F143068F3DA01C9010197A109B10973
:102FA00088589341A040B04008F059C005B904B911
:102FB0008901C0E0D0E003C00E9400242296C0171F
:102FC000D107D0F314B815B8A89585E080934102D5
:102FD000809177020E94CE29C816D90618F0EE24F7
:102FE000FF2403C07C01EC18FD08C0E0D0E003C062
:102FF0000E9400242196C017D107D0F38091770258
:103000000E94CE299C018CE280934102A895C216B1
:10301000D30618F060E070E003C0B9016C197D09B7
:103020006E157F05B0F4C701861B970BBC0189F0B4
:1030300080E090E024EF31E040E050E00E94AF33C8
:10304000970140E050E00E940134309375022093D4
:1030500074020E946C1017B818B814B815B8DF9134
:10306000CF911F910F91FF90EF90DF90CF90089537
:103070002F923F924F925F926F927F928F929F9288
:10308000AF92BF92CF92DF92EF92FF920F931F9376
:10309000DF93CF93CDB7DEB727970FB6F894DEBF97
:1030A0000FBECDBF569A8BB1806C8BB986E88093EA
:1030B0007A0014B7187084B7877F84BF88E10FB691
:1030C000F89480936000109260000FBE0E9419096E
:1030D0000E940F061092050210920602112319F0A9
:1030E0000E940F06CCC00E943D0A882349F00E942E
:1030F00034098C3D29F40E9442094F9B28C031C0FD
:103100000E940F0686E1809305021092060280E07D
:103110006BEE76E00E945B081092050283E08093DC
:10312000060289EF96E00E94A3081092050284E04F
:10313000809306028FE097E00E94A3080E94E32399
:103140000E94E4238FE18093050286E09CC00E94E8
:10315000E6230E94E8234F9904C00E940F060E94B4
:10316000B30810924F021092100210920C021092AB
:103170000A021092090210920B0210924E02109253
:1031800065021092520280910402882321F00E946D
:103190000F060E940F0681E08093040217B8109278
:1031A00062021092760210927702109242020E94FE
:1031B000B32B84E592E00E948B34992787FD90958C
:1031C0002091490230914A02820F931F909344024A
:1031D0008093430285E00E94CE2985E00E94CC299D
:1031E00090935C0280935B028CE18093050285E002
:1031F0008093060280E06BE50E94FB0780E06CE6AE
:1032000078E00E945B0820915B0230915C02220F03
:10321000331F220F331F2A563F4F40E050E02093C8
:10322000660230936702409368025093690287E216
:1032300098E061E00DEF16E5E12EB3E0CB2E0E94A1
:103240007B0E80E06DE50E94FB0780915B02909110
:103250005C0283539640B0F580E00E94FD0581E05A
:103260000E94FD0582E00E94FD0583E00E94FD05AD
:1032700084E00E94FD050E9498090E94E4238FE1EA
:103280008093050283E0809306020E94220A80E078
:1032900090E027960FB6F894DEBF0FBECDBFCF915A
:1032A000DF911F910F91FF90EF90DF90CF90BF9033
:1032B000AF909F908F907F906F905F904F903F90D6
:1032C0002F9008952FE088E190E00FB6F894A8952C
:1032D000809360000FBE209360000E941E100E9429
:1032E00042091092050283E0809306020E946C104E
:1032F00080910C02883009F014C10E94CA0A0E9411
:103300000F0680E060E00E94460510E08FEF0E940B
:1033100042051F5F1038D1F781E060E00E9446054A
:1033200010E08FE70E9442051F5F1038D1F71EE2C0
:10333000109305021092060281E067E777E00E9491
:10334000E9051093050283E08093060285E50E945B
:103350006F088DE30E946F0880917E0290917F023A
:103360004C019C0140E050E060E070E080E090E0C3
:1033700002E00E94BB2C122F632E442E252E69835F
:103380007A838B839C8305E00E94BB2CA32FB42FF0
:10339000552E362E7D838E839F83722E711AF1E017
:1033A000271508F0F0E03A2F3619E1E0A31708F0EE
:1033B000E0E0032F0F1B21E0301708F020E0E22BA4
:1033C0004B2F441931E0B41708F030E0942F9E1BC6
:1033D00021E0491708F020E0322B552D521941E029
:1033E000551608F040E0152F131B21E0511708F087
:1033F00020E0422B632D3981631B31E0361608F043
:1034000030E0B62FB41B21E06B1708F020E0322B20
:103410007D818A81781B41E0ED81E71708F040E06B
:10342000A72FA31B21E07A1708F020E0422B8E8102
:10343000FB818F1B21E03E81381708F020E0582ED9
:10344000541A31E0851508F030E0232B4F808C8131
:10345000481A421A672C680C31E0671408F030E013
:10346000202F290D81E0201708F080E0320F41E085
:10347000321708F040E0482B490F51E0491708F097
:1034800050E0510F61E0511708F060E06B0F71E000
:103490006B1708F070E07A0F81E07A1708F080E08F
:1034A000850D91E0851508F090E0262D940D03E040
:1034B0000E94BB2CAFECAA2EF3E0BF2ECC24DD245F
:1034C000EE24FF2400E010E00E943A2D30937F02AA
:1034D00020937E0240E050E087E298E060E00DEF4C
:1034E000E6E5EE2E73E0C72E0E947B0E85E06DE2CE
:1034F00047E220E80E94230685E06BE348E259E0BA
:103500002AE00E949F0680917C0265E042E20E94D0
:103510002E0780917D0265E044E50E942E070C9401
:10352000A1230E94300B80E061E042E00E943E1146
:1035300081E060E042E00E943E1180E062E041E014
:103540000E943E1182E060E041E00E943E1181E075
:1035500062E040E00E943E1182E061E040E00E94B3
:103560003E1180910C02882321F0863011F08130C9
:10357000D9F40E946C1010926A0210926B021092A1
:103580006C0210926D0284EF8093790282E060E019
:103590000E94812482E061E00E94812481E060E059
:1035A0000E9481240E9451270E940F0680E060E063
:1035B0000E94460510E08FEF0E9442051F5F103801
:1035C000D1F781E060E00E94460510E08FE70E949D
:1035D00042051F5F1038D1F780910C02813009F04D
:1035E000ECC290910A02943010F00C945223809314
:1035F00052028AE28093050210920602923038F05D
:103600008CE18093050281E062E477E003C081E011
:103610006CE377E00E94E90580910A02813009F0AD
:1036200086C090917D0280917C02282F30E0290F86
:10363000311D2130310539F465E04BE315E00FE32E
:103640008FE1F82E1DC02230310549F465E045E7D1
:1036500015E009E7BCE3FB2EA4E1EA2E12C02330FB
:10366000310549F46FE34BE31FE309E7F9E5FF2E6A
:10367000EEE1EE2E06C060E040E010E000E0FF2446
:10368000EE2484E020E80E94230685E0612F0E945A
:1036900046058FEF0E94420585E0602F0E94460597
:1036A0008FEF0E94420590917C0280917D029817D5
:1036B00028F484E06F2D4CE359E004C084E06F2DC2
:1036C0004AE459E027E00E949F0680E066E040E07F
:1036D0000E942E0781E066E04AE30E942E0782E006
:1036E00066E044E70E942E07E092050283E08093A3
:1036F00006021092650280E70E94121080E20E948A
:103700006F0880917D0260917C020E94812420914B
:10371000660230916702409168025091690286E723
:1037200098E060E00091780276E4E72E7BC4843074
:1037300010F00C949A238330C1F590917C02809113
:103740008502981731F090917D028091840298173C
:1037500081F480918402809380028091850280931D
:1037600081028091860290918702909383028093D8
:1037700082029091800280918502981731F0909199
:10378000810280918402981781F480918402809351
:103790007C028091850280937D02809186029091C7
:1037A000870290937F0280937E0290917D028091A8
:1037B0007C02282F30E0290F311D2130310559F4CA
:1037C00065E04BE316E00FE18BE0F82E36E0EE24E7
:1037D000DD24D39431C02230310541F060E040E077
:1037E00010E000E0FF2430E0EE2425C084E065E036
:1037F0000E9446058FEF0E94420585E065E00E9429
:1038000046058FEF0E94420584E069E70E94460565
:103810008FEF0E94420585E069E70E9446058FEF21
:103820000E94420565E045E713E00CE3B8E2FB2E99
:1038300033E0EE24E394DD2420917D0280917C022C
:1038400090E0820F911D039751F46FE34BE316E074
:1038500009E5A5E4FA2E36E0CC24C39401C0CC24BB
:10386000832F20E80E94230690917C0280917D02A4
:10387000981728F4812F602F4CE359E004C0812F62
:10388000602F4AE459E027E00E949F06F09205026B
:1038900011501093060280E70E94121020918102BD
:1038A0008091800290E0820F911D019711F016E047
:1038B00040C0DD2011F416E01DC084E065E00E94E8
:1038C00046058FEF0E94420585E065E00E944605AF
:1038D0008FEF0E94420584E06FE30E9446058FEF60
:1038E0000E94420585E06FE30E9446058FEF0E942B
:1038F000420513E0812F65E04BE320E80E94230698
:103900009091800280918102981728F4812F6FE1B5
:103910004CE359E004C0812F6FE14AE459E027E00D
:103920000E949F068BE080930502115010930602BF
:103930001F5F209181028091800290E0820F911D93
:10394000029709F089C0EE2009F44CC082E00E9481
:10395000FD0583E00E94FD0584E065E045E720E881
:103960000E94230685E065E00E9446058FEF0E94D5
:10397000420585E069E70E9446058FEF0E944205F7
:1039800090917C0280917D02981728F484E06FE189
:103990004CE359E004C084E06FE14AE459E027E0D9
:1039A0000E949F068BE08093050283E080930602CD
:1039B00080E70E94121090918002809181029817F6
:1039C00028F484E069E54CE359E004C084E069E54B
:1039D0004AE459E027E00E949F0685E480930502AF
:1039E00083E038C083E065E045E720E80E942306D5
:1039F00084E065E00E9446058FEF0E94420585E065
:103A000065E00E9446058FEF0E94420584E069E769
:103A10000E9446058FEF0E94420585E069E70E94FB
:103A200046058FEF0E9442059091800280918102AD
:103A3000981728F483E06CE34CE359E004C083E07A
:103A40006CE34AE459E027E00E949F0688E28093F5
:103A5000050282E08093060220918102809180021B
:103A600090E0820F911D039709F0A3C0CC20E9F0EC
:103A700084E06FE30E9446058FEF0E94420585E0D7
:103A80006FE30E9446058FEF0E94420584E069E7DC
:103A90000E9446058FEF0E94420585E069E70E947B
:103AA00046058FEF0E94420513E0DD2009F447C070
:103AB00085E00E94FD0586E00E94FD0587E00E94EA
:103AC000FD0584E065E045E720E80E94230685E0E7
:103AD00065E00E9446058FEF0E94420585E06FE396
:103AE0000E9446058FEF0E94420590917C028091D2
:103AF0007D02981728F484E06FE14CE359E004C09C
:103B000084E06FE14AE459E027E00E949F068BE0E1
:103B10008093050283E08093060280E70E941210E2
:103B200085E06FE30E9446058FEF0E94420585E025
:103B300069E70E9446058FEF0E94420514E0812F3D
:103B40006FE34BE320E80E9423069091800280916E
:103B50008102981728F4812F69E54CE359E004C0ED
:103B6000812F69E54AE459E027E00E949F06DD20A5
:103B7000D1F084E06EE30E94460580EC0E9442058D
:103B800080EC0E94420580EC0E94420585E06EE3D5
:103B90000E94460581E00E9442058FEF0E94420587
:103BA00081E00E94420585E4809305021150109344
:103BB000060281E70E941210BDC5823009F0C5C01F
:103BC00080910902882371F12091570230915802A7
:103BD0004091590250915A0280915302909154029F
:103BE000A0915502B0915602281739074A075B0782
:103BF00048F49091600280916102809360029093FA
:103C0000610210C020935302309354024093550236
:103C10005093560280915D0290915E0290935C02F7
:103C200080935B0283E380930502109206028091E9
:103C30000B02813069F467E877E00E94E90580E0D3
:103C400061E00E94730684E06CE144E659E00DC037
:103C500081E06BE877E00E94E90580E061E00E9486
:103C6000730684E06CE146E759E029E00E949F0674
:103C700080915F0264E042E00E942E078091600222
:103C800062E046E30E942E078091610266E046E30F
:103C90000E942E0783E18093050284E08093060250
:103CA00082E40E946F081092050292E0909306024F
:103CB00080910A02833080F080910B02813011F4F0
:103CC00080E001C08AE00E94D3061CE21093050246
:103CD00082E08093060205C01AE2109305029093D9
:103CE000060283E40E946F081093050286E0809329
:103CF000060285E40E946F0816E41093050284E032
:103D00008093060220915302309154024091550253
:103D10005091560289E798E060E000E0EE24F3E07D
:103D2000CF2E0E947B0E1093050286E08093060240
:103D300020915B0230915C0240E050E08EE798E019
:103D400060E00DEFE6E5EE2E89C4833009F06DC129
:103D500081E2809305021092060280910B0282306C
:103D6000E1F481E06EE40E945A0581E06DE20E9478
:103D70005A0581E065E40E945A0581E06CE777E02E
:103D80000E94E90580E060E10E94730684E06CE136
:103D900048E859E029E00E949F0680910B02833099
:103DA000E1F481E060E50E945A0581E06DE20E9445
:103DB0005A0581E065E40E945A0581E06CE777E0EE
:103DC0000E94E90580E060E10E94730684E06CE1F6
:103DD0004AE959E029E00E949F0680910B02843055
:103DE00051F581E06EE40E945A0581E06DE20E9487
:103DF0005A0581E064E40E945A0581E06CE777E0AF
:103E00000E94E90580E060E10E94730684E06CE1B5
:103E100048E859E029E00E949F0684E06FE10E9493
:103E200046058FEF0E94420585E06FE10E9446053E
:103E30008FEF0E94420580910B02853051F581E0A1
:103E400060E50E945A0581E06DE20E945A0581E01A
:103E500064E40E945A0581E06CE777E00E94E9057E
:103E600080E060E10E94730684E06CE14AE959E079
:103E700029E00E949F0684E06FE10E9446058FEFD3
:103E80000E94420585E06FE10E9446058FEF0E9487
:103E9000420580910B028630B9F485E280930502D9
:103EA00081E06EE40E945A0581E061E877E00E94BB
:103EB000E90580E061E00E94730684E06BE14CEA72
:103EC00059E02AE00E949F0680910B028730B9F4E6
:103ED00085E28093050281E060E50E945A0581E059
:103EE00061E877E00E94E90580E061E00E947306E6
:103EF00084E06AE140EC59E02BE00E949F0680914B
:103F00005F0264E042E00E942E078091600262E05E
:103F100046E30E942E078091610266E046E30E941C
:103F20002E0783E18093050284E08093060287E4F4
:103F30000E946F0880910A02882369F080910B0229
:103F4000843048F480FF02C08AE001C080E00E9413
:103F5000D3061CE201C01AE21093050282E08093AE
:103F6000060284E40E946F081093050286E08093A5
:103F7000060283E50E946F0816E41093050284E0B0
:103F80008093060280910B02843008F580915F02D5
:103F9000609161020E948124209166023091670243
:103FA000409168025091690286E798E060E00091D4
:103FB000780276E4E72EB3E0CB2E0E947B0E1093BE
:103FC000050286E08093060282E898E01DC089E43D
:103FD0000E946F088DE30E946F0820915D0230916E
:103FE0005E0240E050E087E298E060E00BEFA1E481
:103FF000EA2EF2E0CF2E0E947B0E1093050286E09F
:104000008093060286E898E00E94A308209163024C
:104010003091640240E050E087E298E060E00DEF0C
:10402000E6E5EE2E73E0C72E19C38530A1F488E1D2
:10403000809305021092060281E061E577E00E941C
:10404000E9058CE160E10E94730684E06CE340EFD7
:1040500059E029E016C0843009F042C08AE280931A
:1040600005021092060281E06BE477E00E94E90508
:104070008CE160E10E94730684E06AE346ED59E05A
:104080002DE00E949F0680915F0264E04EE10E9455
:104090002E078091600262E042E50E942E07809127
:1040A000610266E042E50E942E078FE280930502DE
:1040B00084E08093060287E40E946F0816E4109360
:1040C000050282E08093060281E40E946F0810934B
:1040D000050286E0809306028BE40E946F082AC3E3
:1040E000863009F0E9C111E0109365028CE18093FC
:1040F00005021092060281E06BE577E00E94E90577
:104100001093520280916202813009F0B4C0209174
:1041100027028091260290E0820F911D019729F0DD
:1041200010E0FF24BB24DD2415C012E21093050229
:1041300083E08093060280E00E94B10F1093050295
:1041400085E08093060215E04BE3F42E3FE3B32EA7
:1041500027E1D22E209127028091260290E0820F43
:10416000911D029789F582E080936502809121027A
:1041700090912202A0912302B09124020097A10500
:10418000B10551F48FE38093050283E0809306022A
:1041900081E08093650206C08CE38093050283E092
:1041A0008093060280E00E94B10F84E480930502B0
:1041B00083E0809306021092650215E095E7F92EE0
:1041C00089E7B82E04E3D02E2091270280912602A1
:1041D00090E0820F911D0397A9F41CE5109305024E
:1041E00083E08093060280E00E94B10F10930502E5
:1041F00085E0809306021FE3BBE3FB2EA9E7BA2EFE
:10420000F1E5DF2E2091210230912202409123021C
:1042100050912402211531054105510511F400E0AA
:1042200016C087E298E060E000912502E8E4EE2EF7
:1042300073E0C72E0E947B0E8CE1809305021092E2
:10424000060281E06EE677E00E94E90501E084E085
:10425000612F4F2D28E00E94230684E0612F0E94E9
:10426000360684E06B2D0E94360684E06D2D402FCB
:104270000E944A063FC010925002209129023091BC
:104280002A0240912B0250912C0280911D029091A4
:104290001E02A0911F02B091200282179307A4076B
:1042A000B50710F41093500280916202823001F140
:1042B0008091500290E0FC01EE0FFF1FE80FF91F04
:1042C000EE0FFF1FEE0FFF1FE35EFD4F2091350243
:1042D00030913602409137025091380280819181AD
:1042E000A281B38182179307A407B50718F482E06F
:1042F0008093500280916202823008F41BC281E0F8
:1043000080936502809150028823E1F584E064E3A4
:1043100040E00E944A0684E065E04FE228E00E9407
:10432000230684E06BE44FE228E00E94230684E049
:1043300065E00E94360684E069E70E9436068FE356
:104340008093050283E08093060281E00E94B10F12
:1043500086E061E540E00E944A0686E065E44CE0C4
:1043600028E00E94230686E068E64CE028E00E94F0
:1043700023068CE58093050285E08093060282E0A7
:104380000E94B10F80915002813009F050C084E04A
:1043900067E140E00E944A0684E066E041E128E0EF
:1043A0000E94230684E06EE241E128E00E94230699
:1043B00084E065E00E94360684E06FE30E943606E2
:1043C00082E28093050213E01093060280E00E94CF
:1043D000B10F84E061E540E00E944A0684E060E4B9
:1043E00041E128E00E94230684E068E641E128E0FC
:1043F0000E94230684E06FE30E94360684E069E7AA
:104400000E9436068CE5809305021093060282E036
:104410000E94B10F84E06EE30E9446058CE10E9489
:1044200042058CEF0E9442058CE10E94420580917A
:104430005002823009F07EC186E067E140E00E94D0
:104440004A0686E06BE04CE028E00E94230686E006
:104450006EE24CE028E00E94230682E2809305028F
:1044600085E08093060280E00E94B10F84E064E35F
:1044700040E00E944A0684E065E04FE228E00E94A6
:10448000230684E06BE44FE228E00E94230684E0E8
:1044900065E00E94360684E069E70E94360681E006
:1044A000809365028FE38093050283E08093060288
:1044B00081E00E94B10F3EC1873009F0F3C088E16E
:1044C000809305021092060281E064E677E00E9484
:1044D000E90580E066E040E00E942E0782E066E0A9
:1044E00044E70E942E07209177028091760290E0A7
:1044F000820F911D019791F481E066E04AE30E94EA
:104500002E0786E06BE04FE220E40E94230686E05F
:1045100060E248E559E026E00E949F06209177027C
:104520008091760290E0820F911D029769F486E0F7
:104530006BE049E620E40E94230686E06DE348E54F
:1045400059E026E00E949F06209177028091760232
:1045500090E0820F911D039791F481E066E04AE3B9
:104560000E942E0786E065E44FE220E40E942306C5
:1045700086E06AE548E559E026E00E949F0681E072
:1045800080936502209177028091760290E0820FFD
:10459000911D2DE130E0829F5001839FB00C929FCE
:1045A000B00C1124E5E0AE0EA092050285E08093E8
:1045B000060220916A0230916B0240916C02509188
:1045C0006D0287E298E060E000917902E6E4EE2E69
:1045D00074E0C72E0E947B0EA092050283E08093B8
:1045E000060280917702609176020E94062A9093DB
:1045F0007302809372020E9481174091720250915F
:104600007302FFEF4A3F5F0760F58091740290915B
:104610007502892B31F110920502109265029A0100
:1046200040E050E08AE998E060E00EEF1EE7E12EFE
:10463000B2E0CB2E0E947B0E8FE78093050282E0D2
:1046400080936502209174023091750240E050E041
:104650008FE998E060E00FEFA5E2EA2E0E947B0E62
:1046600069C020917402309175022115310549F01D
:1046700040E050E08FE998E060E00FEFF5E2EF2EC8
:104680000EC02FEF4A3F520708F054C09A0140E095
:1046900050E08AE998E060E00EEFEEE7EE2E72E07F
:1046A000C72EDCCF60910A02662381F480E00E946D
:1046B000FD0581E00E94FD058AE3809305021092CA
:1046C000060280E06FE30E946B0716C081E28093D0
:1046D000050210920602605D80E00E946B0780E098
:1046E00067E341E120E80E94230680E06CE34CE3AD
:1046F00059E027E00E949F0616E11093050284E02E
:10470000809306028FE897E00E94A30810930502A9
:1047100085E08093060280E06EE977E00E945B0806
:104720001092520280914F028F5F80934F0210923D
:10473000100207C010924F02809110028F5F809389
:10474000100280915202882379F080E066E040E018
:104750000E942E0781E066E04AE30E942E0782E075
:1047600066E044E70E942E070E940A0680E187B9AE
:104770004F9BFECF0E94E9231092640210926302C5
:1047800010C04F9902C00C94B518A8950E94F02350
:1047900080916302909164020A96909364028093E0
:1047A0006302809163029091640288599A4348F3AE
:1047B0005E984F9902C00C94B518A8950E94F023FA
:1047C000F8CF03D002D001D000D000D003D002D067
:1047D00001D000D0A89500D003D002D001D000D0E5
:1047E00000D003D002D001D000D000D003D002D03E
:1047F00001D000D000D003D002D001D000D000D032
:1048000003D002D001D000D000000895CF93DF93F1
:1048100021E08C32920718F4E0E0F0E003C0FC01E4
:10482000EC52F140CF0169E170E00E94DA33262FAB
:10483000CF0169E170E00E94DA33482F2D3208F091
:104840002CE2822F90E0880F991FFC01EF5DF94F59
:10485000259134918D5D994FFC01C591D49189E1E9
:10486000841B90E02C1B3D0BAC01429FC001439F79
:10487000900D529F900D11240C9669E170E00E94FA
:10488000DA336C0F7D1FCB01DF91CF9108951F9319
:10489000609166027091670280916802909169024E
:1048A000109178020AC02AE030E040E050E00E9417
:1048B0000134C901DA01BC01CD01212F1F5F613A2A
:1048C00036E8730731E0830730E0930760F7209301
:1048D0007802209145023091460240E050E00E946B
:1048E000AF3328E833E140E050E00E9401342093E8
:1048F00066023093670240936802509369021F91E9
:1049000008958F929F92AF92BF92CF92DF92EF92D3
:10491000FF920F931F93CF93DF93982E862EC82F6D
:10492000D0E0262F2150CE01880F991F8C0F9D1F9C
:10493000280F20935102E62FF0E0E25EF64FA4909C
:10494000FE01E55EF64FB49080910C02863009F4CA
:1049500061C230910A02ECE7F2E020E00EC08181F2
:10496000881549F48081891531F4828193818C5DA9
:10497000954008F44FC22F5F3496231780F31092AE
:1049800073021092720210926602109267021092E5
:1049900068021092690284EF809378020E946C1082
:1049A00018B815B8A7B8B4B8892D0E94CE298C01C3
:1049B000EE24FF24B5B8B4B80E94F02314B815B89B
:1049C0000E94F623A895892D0E94CE290817190761
:1049D00018F0CC24DD2403C06C01C01AD10A8EE784
:1049E000E816F10429F44BE4C416D10408F408C213
:1049F0008DE2C81681E0D80608F007C20894E11CD1
:104A0000F11C44EFE41641E0F406A1F6F9C185E19A
:104A1000C81685E0D80608F082C087EF8093780238
:104A2000C0E0D0E00E94F123892D0E94CE29A895F4
:104A30002196EC16FD06B0F70817190718F060E08C
:104A400070E00BC0BC01601B710B6C157D0528F07C
:104A5000AA24BB24C0E0D0E01AC0E601C61BD70BD5
:104A600019F4AA24BB2413C0C536D10508F0C8C167
:104A7000BE0180E090E028EE33E040E050E00E948C
:104A8000AF33960140E050E00E9401345901089490
:104A9000E11CF11C00E010E0E0926E02F0926F0267
:104AA0000093700210937102CE018C0D9D1D0E9427
:104AB00006249C0140E050E0C801B7010E94AF33DA
:104AC00060936E0270936F028093700290937102F4
:104AD0006093660270936702809368029093690204
:104AE0000E9447246091660270916702809168027B
:104AF0009091690223EE33E040E050E00E94AF3332
:104B000024E630E040E050E00E9401342093660249
:104B10003093670240936802509369022FC11B2DA6
:104B2000110F0E946C1015B88FE087B918B814B92E
:104B300080E480937B0084E580BF892D806480932E
:104B40007C0086E180937A000E94F9231092800015
:104B5000109285001092840087E286BB15B980917F
:104B60000C02833071F481E08093810081E090E059
:104B700002C0880F991FCA95E2F78095877087B9A0
:104B800004C081E080938100A7B891E086B3282F0C
:104B900085FD0CC080FFFACF96BBA8950894E11C58
:104BA000F11C40E4E41646E0F40681F7109281001F
:104BB00080E286BBC0918600D091870080918400FE
:104BC00090918500C817D90738F420FF05C081E00F
:104BD00086BB0894E11CF11C86E980937A0014B826
:104BE00015B8892D0E94CE292091490230914A02A0
:104BF000821B930B049690937B0280937A0280E24F
:104C0000E81683E0F80608F0FBC0F0927102E0922B
:104C10007002D0936F02C0936E0284EF809378028B
:104C200042E4E416F104C8F060916E0270916F02E4
:104C3000809170029091710224E630E040E050E0F3
:104C40000E94013420936E0230936F0240937002F1
:104C50005093710286EF8093780260910001709109
:104C6000010180E090E020916E0230916F0240914E
:104C70007002509171020E94AF3320E233E040E0B5
:104C800050E00E94013420936E0230936F024093F3
:104C9000700250937102E6E6F2E0209366023183DF
:104CA000428353830E94472480917802843F09F015
:104CB00055C0E0906602F090670200916802109182
:104CC000690280EAE8168FE0F80680E0080780E0D5
:104CD0001807C0F4A80197012C543F4F4F4F5F4F66
:104CE00060EA7FE080E090E00E940134E20EF31E73
:104CF000041F151FE0926602F0926702009368029B
:104D0000109369028091510290E0895A9D4F0E9450
:104D10008B34209166023091670240916802509175
:104D2000690290E0A0E0B0E082179307A407B507FE
:104D300068F4281B390B4A0B5B0B209366023093F7
:104D40006702409368025093690208C0109266029D
:104D5000109267021092680210926902B4B88091B2
:104D6000660290916702A0916802B091690249972A
:104D7000A105B10508F444C0AA24BB2480910A020D
:104D8000882321F080910C028330D1F587E0809355
:104D90000C0260917802809179028617BCF0681746
:104DA00079F5209166023091670240916802509136
:104DB000690280916A0290916B02A0916C02B0919D
:104DC0006D0282179307A407B507D0F4809166029D
:104DD00090916702A0916802B091690280936A0283
:104DE00090936B02A0936C02B0936D026093790272
:104DF000B0927502A092740280927602909277022D
:104E000017B818B814B815B805C0E114F10409F4BE
:104E1000FECD03CEDF91CF911F910F91FF90EF90C8
:104E2000DF90CF90BF90AF909F908F9008950F9399
:104E30001F93CF93DF938C0164E170E00E94DA331B
:104E400070E09B01220F331F8BE796E0280F391F7C
:104E5000F901C591D491AB014F5F5F4F440F551FCE
:104E6000480F591FFA01259134912C1B3D0BC801A5
:104E700064E170E00E94DA3390E0AC01249FC0014D
:104E8000259F900D349F900D112464E170E00E94E5
:104E9000DA336C0F7D1FCB01DF91CF911F910F9102
:104EA00008952F923F924F925F926F927F928F92CE
:104EB0009F92AF92BF92CF92DF92EF92FF920F93A9
:104EC0001F93DF93CF93CDB7DEB763970FB6F894F8
:104ED000DEBF0FBECDBF80910C02863009F03FC20D
:104EE00080916202813009F03AC280911D02909156
:104EF0001E02A0911F02B091200289509245A0404D
:104F0000B04008F02CC21B8A8B89823028F4A09014
:104F10002602F090270204C0A0902702F0902602FB
:104F2000EF2DF0E0E25EF64FB490EA2DF0E0E55EA2
:104F3000F64F249115B818B880911D0290911E0269
:104F4000A0911F02B0912002803F9105A105B105FB
:104F5000B0F49B8990FD13C0409007025090080266
:104F6000A0E7B5EE4A0E5B1E81E090E00A2C02C07D
:104F7000880F991F0A94E2F78B2987B906C024B9D4
:104F8000B7B84090070250900802EE248A2D0E9484
:104F9000CA298C018F2D0E94CE290230110510F4F0
:104FA000029720F0E394B4E1EB1681F720E420931C
:104FB0007B0084E580BF8A2D806480937C0096E12D
:104FC00090937A00109280001092850010928400D5
:104FD000A7E2A6BB0E94F923BB892B2E3324C10173
:104FE000817090709A8B898BB0FD05C091E8909389
:104FF0008100B8B808C0B8B80E940224A0E2A6BBDD
:10500000B1E8B093810020E030E086B3482F85FFFF
:1050100002C049010DC080FFF8CF81E086BBA89592
:105020002F5F3F4F2035310581F730E5832E912CDE
:105030001092810090E296BB20918600309187000B
:10504000390180918400909185002817390738F440
:1050500040FF05C0A1E0A6BB0894811C911C18B8B4
:10506000B6E9B0937A00EE248A2D0E94CA298C01F9
:105070008F2D0E94CE290230110510F4029720F0E6
:10508000E39424E1E21681F7A0901D02B0901E0285
:1050900080914C0290914D02A80EB91EA40CB51C33
:1050A00085E592E00E9493342091490230914A02B2
:1050B000280F391F80E948168AE15806C8F491EE96
:1050C000691671048104910410F089E107C0C301DD
:1050D00065E070E00E94DA33862F8451B90168528E
:1050E0007040992787FD9095681B790B86E00AC070
:1050F000C50160EB76E30E94DA33862F895FB90140
:10510000685D7F4F90E0A0E0B0E086159705A805A8
:10511000B90528F4681A790A8A0A9B0A03C066242A
:1051200077244301A989BA89AB2B41F082E290E050
:10513000A0E0B0E0680E791E8A1E9B1E90E58916DD
:10514000910418F0662477244301ABE06A167104D9
:105150008104910428F0089461087108810891087D
:10516000CC24DD2480E090E028EE33E040E050E005
:105170000E94AF337B018C01B20180E090E020916E
:1051800045023091460240E050E00E94AF33A60154
:1051900095010E94013440E050E0C801B7010E942F
:1051A0000134DA01C9010E9417277C01C601B5014B
:1051B000A40193010E94AF335B016C0100E010E099
:1051C00023E0EE0CFF1C001F111F2A95D1F785E08C
:1051D00090E0A0E0B0E0E80EF91E0A1F1B1FC80116
:1051E000B7012AE030E040E050E00E94013440E0A6
:1051F00050E0C601B5010E940134F101EE0FFF1F1E
:10520000EE0FFF1FA1E0B0E0AC0FBD1FEA0FFB1FC8
:10521000208331834283538389899A89892BA9F416
:105220009CE0691671048104910478F0F1013196D3
:10523000EE0FFF1FEE0FFF1FEA0FFB1F20833183CE
:1052400042835383AB89AF5FAB8BA895BB89BF5FAC
:10525000BB8BB43008F458CE18B80E94EF2370E02E
:105260002D813E814F81588589819A81AB81BC8196
:1052700082179307A407B50708F471E02D853E85D2
:105280004F85588989859A85AB85BC858217930798
:10529000A407B50710F463E001C062E0E62FF0E078
:1052A000EE0FFF1FEE0FFF1FDE011196EA0FFB1F2F
:1052B000872F90E0880F991F880F991FA80FB91F9B
:1052C00020813181428153818D919D910D90BC91BE
:1052D000A02D281739074A075B0708F4762F872F78
:1052E00090E0FC01EE0FFF1FEE0FFF1FEC0FFD1F04
:1052F0004181528163817481409321025093220243
:1053000060932302709324022BEF2093250280FDEB
:105310000DC080911D0290911E02A0911F02B091BC
:105320002002803F9105A105B105B8F08CEF809374
:1053300025024B5F5F4F6F4F7F4FCB01BA012AE0D1
:1053400030E040E050E00E9401342093210230938D
:105350002202409323025093240217B814B8639694
:105360000FB6F894DEBF0FBECDBFCF91DF911F9176
:105370000F91FF90EF90DF90CF90BF90AF909F90F4
:105380008F907F906F905F904F903F902F900895F7
:105390000E94F0230E94F1230E94F1231F93182FF3
:1053A000106410937C0020E030E0A901E0E010C020
:1053B00086ED80937A0080917A0086FDFCCF609123
:1053C000780070917900260F371F411D511DEF5F46
:1053D00080914102E81760F36091450270914602A6
:1053E00080E090E00E94AF332FEF33E040E050E0E8
:1053F0000E940134B901CA012091410230E040E02D
:1054000050E00E940134C9011F9108952F923F92EC
:105410004F925F926F927F928F929F92AF92BF92C4
:10542000CF92DF92EF92FF920F931F93DF93CF9370
:10543000CDB7DEB763970FB6F894DEBF0FBECDBF12
:10544000888B698B80910C028730A1F480916A026D
:1054500090916B02A0916C02B0916D028887998740
:10546000AA87BB8784369105A105B10518F42FEFF3
:105470003FEF5FC19989292F30E0F901E25EF64FD5
:10548000A491AC83B8898B2F90E0FC01E25EF64FCB
:1054900044914B83255E364FF901F491FA83855E82
:1054A000964FFC01F491F9832989206C2E83B06C0E
:1054B000BD830E946C1018B84E8140937C000E94FE
:1054C000FA235B8157B98A8185B984B90E94FF2389
:1054D0000E94032414B815B886ED80937A00809159
:1054E0007A0086FDFCCF1F8222243324210166240A
:1054F0007724430191E0A92EB12CC12CD12C81E05D
:10550000E82EF12C012D112D9C8197B9AA81A5B906
:10551000A4B9BE81B0937C00E6EDE0937A0080915F
:105520007A0086FDFCCFF6EDF0937A0080917A0048
:1055300086FDFCCF40917800509179005F874E87BF
:105540005D8150937C0086ED80937A0080917A0093
:1055500086FDFCCF96ED90937A000E940124A981EC
:10556000A5B9A4B90E94FE230E9400240E9403242E
:1055700014B815B880917A0086FDFCCFE0917800D0
:10558000F0917900FD87EC87A895FB81F7B9298117
:1055900025B924B9A8954D8140937C0056ED5093D0
:1055A0007A0080917A0086FDFCCF86ED80937A00A8
:1055B00080917A0086FDFCCFA0917800B0917900AF
:1055C000BB8BAA8BBE81B0937C00E6EDE0937A00A2
:1055D00080917A0086FDFCCFF6EDF0937A000E9470
:1055E00001242A8125B924B90E94FE230E940024A7
:1055F0000E94032414B815B880917A0086FDFCCF70
:1056000020917800309179004E855F85CA01A0E035
:10561000B0E0E80EF91E0A1F1B1FEC85FD85CF01C7
:10562000A0E0B0E0680E791E8A1E9B1E4A895B8945
:10563000CA01A0E0B0E0A80EB91ECA1EDB1E40E001
:1056400050E0220E331E441E551E5F815F5F5F8354
:105650005F3F09F059CFAE0CBF1CC01ED11EA40184
:105660009301220D331D441D551DA216B306C40619
:10567000D50620F0EE24FF24870106C079018A01B7
:10568000EA18FB080C091D0980910C028730D1F43F
:10569000688579858A859B856D5E7F4F8F4F9F4F8B
:1056A000288539854A855B850E94AF339B01AC0113
:1056B00066E379E286E89AE10E940134E21AF30A8D
:1056C000040B150B60914C0270914D0280E090E04C
:1056D0002AE030E040E050E00E94AF33A80197019B
:1056E0000E94AF33EA0CFB1C0C1D1D1DA801970185
:1056F0000E940134DA01C90189016EE070E00E9464
:10570000DA33060F171FA8898A2F90E0B9898B0F0B
:10571000911D825A9D4F0E948B34992787FD909549
:105720008017910718F020E030E003C09801281B93
:10573000390BC90163960FB6F894DEBF0FBECDBF1B
:10574000CF91DF911F910F91FF90EF90DF90CF905D
:10575000BF90AF909F908F907F906F905F904F9091
:105760003F902F9008952F923F925F926F927F9279
:105770008F929F92AF92BF92CF92DF92EF92FF9261
:105780000F931F93CF93DF9388E893E190934602A2
:10579000809345028EEB8093410218B880E187B96F
:1057A0000E94F52317B884E00E94CC298C019093C5
:1057B0005E0280935D028B5C9840835F9140C0F4F1
:1057C00081E080934E02609145027091460280E034
:1057D00090E02FEB39E040E050E00E94AF339801B9
:1057E00040E050E00E94013430934602209345028D
:1057F0008EE00E94CE298EE00E94CC2990934A022E
:10580000809349020E941E1084E592E00E948B342E
:10581000992787FD90952091490230914A02820F85
:10582000931F909344028093430211E017B915B976
:1058300014B980E00E94CC296C0142E0F42EF7B844
:1058400004E005B904B981E00E94CC293C0107B904
:1058500030E1532E55B854B882E00E94CC296C0C2C
:105860007D1C680E791E15B818B917B914B92090A7
:1058700045023090460280E00E94CC29EC01F8B845
:10588000F7B804B9A0904502B090460281E00E94AA
:10589000CC297C0108B907B954B800914502109190
:1058A000460282E00E94CC29A20CB31CA00EB11EBD
:1058B000A81AB90AAE18BF08AC1ABD0A80914502F1
:1058C000909146027C01EE0CFF1CE80EF91EE618D2
:1058D000F708EA18FB0800E010E088249924C401C6
:1058E000B30120E93AE140E050E00E94AF33A80163
:1058F00097010E940134E90130934D0220934C023C
:10590000CC24DD24C601B50120E93AE140E050E0B5
:105910000E94AF33A80197010E940134C90130935E
:1059200048022093470221E08831920778F4CA3F69
:10593000D10560F48057954E90930E0280930D022E
:10594000C057D54ED0930802C09307028CE28093D3
:105950004102DF91CF911F910F91FF90EF90DF9067
:10596000CF90BF90AF909F908F907F906F905F90FF
:105970003F902F900895EF92FF920F93DF93CF9374
:10598000CDB7DEB760970FB6F894DEBF0FBECDBFC0
:10599000A82F002309F461C07E010894E11CF11CCA
:1059A00088E0F70111928A95E9F729833A834B83BE
:1059B0005C836D837E83AF83988780E2801BE82FB2
:1059C000FF27E7FDF09549815A816B817C8118168C
:1059D00084F019861A861B861C86882799278E1BB9
:1059E0009F0B04C0440F551F661F771F8A95D2F77F
:1059F00028C0202F332727FD3095DB01CA01022E56
:105A000004C0880F991FAA1FBB1F0A94D2F7898769
:105A10009A87AB87BC8704C076956795579547955D
:105A2000EA95D2F78D819E81AF81B88504C0880F39
:105A3000991FAA1FBB1F2A95D2F7482B592B6A2BF7
:105A40007B2B4D875E876F87788B29853A854B85C1
:105A50005C856D857E85AF8598898A2F60960FB6A7
:105A6000F894DEBF0FBECDBFCF91DF910F91FF90B5
:105A7000EF900895AEE5B0E0E0E4FDE20C943E3432
:105A8000A8E04E010894811C911CF4016A2E119229
:105A90006A94E9F729833A834B835C836D837E8321
:105AA0008F839887CE010996FC011192AA95E9F798
:105AB000A986BA86CB86DC86ED86FE860F87188B94
:105AC00029843A844B845C84ED84FE840F85188994
:105AD00069807A808B809C806DA67EA68FA698AA0E
